{
  "abi": [
    {
      "inputs": [
        {
          "internalType": "address",
          "name": "_univ3_router",
          "type": "address"
        },
        {
          "internalType": "address",
          "name": "_aggregator",
          "type": "address"
        }
      ],
      "stateMutability": "nonpayable",
      "type": "constructor"
    },
    {
      "anonymous": false,
      "inputs": [
        {
          "indexed": true,
          "internalType": "address",
          "name": "pendingOwner",
          "type": "address"
        }
      ],
      "name": "OwnershipOffered",
      "type": "event"
    },
    {
      "anonymous": false,
      "inputs": [
        {
          "indexed": true,
          "internalType": "address",
          "name": "previousOwner",
          "type": "address"
        },
        {
          "indexed": true,
          "internalType": "address",
          "name": "newOwner",
          "type": "address"
        }
      ],
      "name": "OwnershipTransferred",
      "type": "event"
    },
    {
      "inputs": [],
      "name": "aggregator",
      "outputs": [
        {
          "internalType": "address",
          "name": "",
          "type": "address"
        }
      ],
      "stateMutability": "view",
      "type": "function"
    },
    {
      "inputs": [],
      "name": "claimOwnership",
      "outputs": [],
      "stateMutability": "nonpayable",
      "type": "function"
    },
    {
      "inputs": [
        {
          "internalType": "address",
          "name": "strategy",
          "type": "address"
        }
      ],
      "name": "getLinkPrice",
      "outputs": [
        {
          "internalType": "uint256",
          "name": "",
          "type": "uint256"
        }
      ],
      "stateMutability": "nonpayable",
      "type": "function"
    },
    {
      "inputs": [
        {
          "internalType": "address",
          "name": "strategy",
          "type": "address"
        }
      ],
      "name": "getPancakeV3Price",
      "outputs": [
        {
          "internalType": "uint256",
          "name": "",
          "type": "uint256"
        }
      ],
      "stateMutability": "nonpayable",
      "type": "function"
    },
    {
      "inputs": [
        {
          "internalType": "address",
          "name": "strategy",
          "type": "address"
        }
      ],
      "name": "getUniV3Price",
      "outputs": [
        {
          "internalType": "uint256",
          "name": "",
          "type": "uint256"
        }
      ],
      "stateMutability": "nonpayable",
      "type": "function"
    },
    {
      "inputs": [],
      "name": "owner",
      "outputs": [
        {
          "internalType": "address",
          "name": "",
          "type": "address"
        }
      ],
      "stateMutability": "view",
      "type": "function"
    },
    {
      "inputs": [],
      "name": "pancakeswapV3SwapRouter",
      "outputs": [
        {
          "internalType": "address",
          "name": "",
          "type": "address"
        }
      ],
      "stateMutability": "view",
      "type": "function"
    },
    {
      "inputs": [],
      "name": "pendingOwner",
      "outputs": [
        {
          "internalType": "address",
          "name": "",
          "type": "address"
        }
      ],
      "stateMutability": "view",
      "type": "function"
    },
    {
      "inputs": [
        {
          "internalType": "address",
          "name": "",
          "type": "address"
        }
      ],
      "name": "prices",
      "outputs": [
        {
          "internalType": "address",
          "name": "tokenA",
          "type": "address"
        },
        {
          "internalType": "address",
          "name": "tokenB",
          "type": "address"
        },
        {
          "internalType": "address",
          "name": "aggregator",
          "type": "address"
        },
        {
          "internalType": "uint24",
          "name": "fee",
          "type": "uint24"
        }
      ],
      "stateMutability": "view",
      "type": "function"
    },
    {
      "inputs": [],
      "name": "renounceOwnership",
      "outputs": [],
      "stateMutability": "nonpayable",
      "type": "function"
    },
    {
      "inputs": [
        {
          "internalType": "address",
          "name": "strategy",
          "type": "address"
        },
        {
          "internalType": "address",
          "name": "tokenA",
          "type": "address"
        },
        {
          "internalType": "address",
          "name": "tokenB",
          "type": "address"
        },
        {
          "internalType": "uint24",
          "name": "fee",
          "type": "uint24"
        }
      ],
      "name": "setPool",
      "outputs": [],
      "stateMutability": "nonpayable",
      "type": "function"
    },
    {
      "inputs": [
        {
          "internalType": "address",
          "name": "_newOwner",
          "type": "address"
        }
      ],
      "name": "transferOwnership",
      "outputs": [],
      "stateMutability": "nonpayable",
      "type": "function"
    },
    {
      "inputs": [],
      "name": "uniswapV3SwapRouter",
      "outputs": [
        {
          "internalType": "address",
          "name": "",
          "type": "address"
        }
      ],
      "stateMutability": "view",
      "type": "function"
    },
    {
      "inputs": [],
      "name": "univ3_router",
      "outputs": [
        {
          "internalType": "address",
          "name": "",
          "type": "address"
        }
      ],
      "stateMutability": "view",
      "type": "function"
    }
  ],
  "bytecode": "608060405234801561001057600080fd5b5060405161138438038061138483398101604081905261002f916100d7565b336100398161006b565b50600380546001600160a01b039384166001600160a01b0319918216179091556004805492909316911617905561010a565b600080546001600160a01b038381166001600160a01b0319831681178455604051919092169283917f8be0079c531659141344cd1fd0a4f28419497f9722a3daafe3b4186f6b6457e09190a35050565b80516001600160a01b03811681146100d257600080fd5b919050565b600080604083850312156100ea57600080fd5b6100f3836100bb565b9150610101602084016100bb565b90509250929050565b61126b806101196000396000f3fe608060405234801561001057600080fd5b50600436106100e95760003560e01c8063715018a61161008c578063beda547911610066578063beda5479146101d1578063cfed246b146101e4578063e30c397814610266578063f2fde38b1461027757600080fd5b8063715018a6146101a55780638292fd84146101ad5780638da5cb5b146101c057600080fd5b80634e71e0c8116100c85780634e71e0c81461015a5780635a1ed7c3146101645780635e997ca31461017757806370b405a51461018a57600080fd5b8062bc574b146100ee57806318d092d614610126578063245a7bfc14610147575b600080fd5b61010973e592427a0aece92de3edee1f18e0157c0586156481565b6040516001600160a01b0390911681526020015b60405180910390f35b610139610134366004610d47565b61028a565b60405190815260200161011d565b600454610109906001600160a01b031681565b610162610366565b005b610139610172366004610d47565b6103ec565b610162610185366004610d6b565b6106c5565b610109731c232f01118cb8b424793ae03f870aa7d0ac7f7781565b6101626108dd565b600354610109906001600160a01b031681565b6000546001600160a01b0316610109565b6101396101df366004610d47565b610922565b6102316101f2366004610d47565b60026020819052600091825260409091208054600182015491909201546001600160a01b039283169291821691811690600160a01b900462ffffff1684565b604080516001600160a01b0395861681529385166020850152919093169082015262ffffff909116606082015260800161011d565b6001546001600160a01b0316610109565b610162610285366004610d47565b610bf8565b6001600160a01b0381811660009081526002602081815260408084208151608081018352815487168152600182015487169381019390935290920154938416818301819052600160a01b90940462ffffff1660608201528151633fabe5a360e21b8152915192939092909184918291849163feaf968c9160048082019260a0929091908290030181865afa158015610326573d6000803e3d6000fd5b505050506040513d601f19601f8201168201806040525081019061034a9190610dee565b505069ffffffffffffffffffff90921698975050505050505050565b6001546001600160a01b031633146103c55760405162461bcd60e51b815260206004820152601f60248201527f4f776e61626c652f63616c6c65722d6e6f742d70656e64696e674f776e65720060448201526064015b60405180910390fd5b6001546103da906001600160a01b0316610cdf565b600180546001600160a01b0319169055565b6001600160a01b03818116600090815260026020818152604080842081516080810183528154871680825260018301548816948201859052919094015495861684830152600160a01b90950462ffffff16606084018190529051630b4c774160e11b815260048101869052602481018390526044810182905293949293859073e592427a0aece92de3edee1f18e0157c0586156490631698ee8290606401602060405180830381865afa1580156104a7573d6000803e3d6000fd5b505050506040513d601f19601f820116820180604052508101906104cb9190610e3e565b90506000816001600160a01b0316633850c7bd6040518163ffffffff1660e01b815260040160e060405180830381865afa15801561050d573d6000803e3d6000fd5b505050506040513d601f19601f820116820180604052508101906105319190610e6d565b50506040516395fc4af560e01b81526001600160a01b038616600482015294955060009473__UintConverter_________________________94506395fc4af59350602401915061057f9050565b600060405180830381865af415801561059c573d6000803e3d6000fd5b505050506040513d6000823e601f3d908101601f191682016040526105c49190810190610f7c565b90506000836001600160a01b031663883bdbfd836040518263ffffffff1660e01b81526004016105f49190611025565b600060405180830381865afa158015610611573d6000803e3d6000fd5b505050506040513d6000823e601f3d908101601f1916820160405261063991908101906110de565b509050600073__UintConverter_________________________636022bb7b836040518263ffffffff1660e01b815260040161067591906111aa565b602060405180830381865af4158015610692573d6000803e3d6000fd5b505050506040513d601f19601f820116820180604052508101906106b691906111e5565b9b9a5050505050505050505050565b336106d86000546001600160a01b031690565b6001600160a01b0316146106fe5760405162461bcd60e51b81526004016103bc906111fe565b6001600160a01b03841661076c5760405162461bcd60e51b815260206004820152602f60248201527f41726269747261676550726963653a2073747261746567792063616e6e27742060448201526e6265207a65726f206164647265737360881b60648201526084016103bc565b6001600160a01b0383166107d85760405162461bcd60e51b815260206004820152602d60248201527f41726269747261676550726963653a20746f6b656e412063616e6e277420626560448201526c207a65726f206164647265737360981b60648201526084016103bc565b6001600160a01b0382166108445760405162461bcd60e51b815260206004820152602d60248201527f41726269747261676550726963653a20746f6b656e422063616e6e277420626560448201526c207a65726f206164647265737360981b60648201526084016103bc565b6040805160808101825260008183018181526001600160a01b039687168352948616602080840191825262ffffff95861660608501908152988816835260029081905293909120915182549087166001600160a01b03199182161783559051600183018054918816919092161790559251920180549451909116600160a01b026001600160b81b03199094169190921617919091179055565b336108f06000546001600160a01b031690565b6001600160a01b0316146109165760405162461bcd60e51b81526004016103bc906111fe565b6109206000610cdf565b565b6001600160a01b03818116600090815260026020818152604080842081516080810183528154871680825260018301548816948201859052919094015495861684830152600160a01b90950462ffffff16606084015251630b4c774160e11b81526004810185905260248101829052610bb86044820152929391928490731c232f01118cb8b424793ae03f870aa7d0ac7f7790631698ee8290606401602060405180830381865afa1580156109db573d6000803e3d6000fd5b505050506040513d601f19601f820116820180604052508101906109ff9190610e3e565b90506000816001600160a01b0316633850c7bd6040518163ffffffff1660e01b815260040160e060405180830381865afa158015610a41573d6000803e3d6000fd5b505050506040513d601f19601f82011682018060405250810190610a659190610e6d565b50506040516395fc4af560e01b81526001600160a01b038616600482015294955060009473__UintConverter_________________________94506395fc4af593506024019150610ab39050565b600060405180830381865af4158015610ad0573d6000803e3d6000fd5b505050506040513d6000823e601f3d908101601f19168201604052610af89190810190610f7c565b90506000836001600160a01b031663883bdbfd836040518263ffffffff1660e01b8152600401610b289190611025565b600060405180830381865afa158015610b45573d6000803e3d6000fd5b505050506040513d6000823e601f3d908101601f19168201604052610b6d91908101906110de565b509050600073__UintConverter_________________________636022bb7b836040518263ffffffff1660e01b8152600401610ba991906111aa565b602060405180830381865af4158015610bc6573d6000803e3d6000fd5b505050506040513d601f19601f82011682018060405250810190610bea91906111e5565b9a9950505050505050505050565b33610c0b6000546001600160a01b031690565b6001600160a01b031614610c315760405162461bcd60e51b81526004016103bc906111fe565b6001600160a01b038116610c955760405162461bcd60e51b815260206004820152602560248201527f4f776e61626c652f70656e64696e674f776e65722d6e6f742d7a65726f2d6164604482015264647265737360d81b60648201526084016103bc565b600180546001600160a01b0319166001600160a01b0383169081179091556040517f239a2ddded15777fa246aed5f7e1a9bc69a39d4eb4a397034d1d85766cca7d4c90600090a250565b600080546001600160a01b038381166001600160a01b0319831681178455604051919092169283917f8be0079c531659141344cd1fd0a4f28419497f9722a3daafe3b4186f6b6457e09190a35050565b6001600160a01b0381168114610d4457600080fd5b50565b600060208284031215610d5957600080fd5b8135610d6481610d2f565b9392505050565b60008060008060808587031215610d8157600080fd5b8435610d8c81610d2f565b93506020850135610d9c81610d2f565b92506040850135610dac81610d2f565b9150606085013562ffffff81168114610dc457600080fd5b939692955090935050565b805169ffffffffffffffffffff81168114610de957600080fd5b919050565b600080600080600060a08688031215610e0657600080fd5b610e0f86610dcf565b9450602086015193506040860151925060608601519150610e3260808701610dcf565b90509295509295909350565b600060208284031215610e5057600080fd5b8151610d6481610d2f565b805161ffff81168114610de957600080fd5b600080600080600080600060e0888a031215610e8857600080fd5b8751610e9381610d2f565b8097505060208801518060020b8114610eab57600080fd5b9550610eb960408901610e5b565b9450610ec760608901610e5b565b9350610ed560808901610e5b565b925060a088015160ff81168114610eeb57600080fd5b60c08901519092508015158114610f0157600080fd5b8091505092959891949750929550565b634e487b7160e01b600052604160045260246000fd5b604051601f8201601f1916810167ffffffffffffffff81118282101715610f5057610f50610f11565b604052919050565b600067ffffffffffffffff821115610f7257610f72610f11565b5060051b60200190565b60006020808385031215610f8f57600080fd5b825167ffffffffffffffff811115610fa657600080fd5b8301601f81018513610fb757600080fd5b8051610fca610fc582610f58565b610f27565b81815260059190911b82018301908381019087831115610fe957600080fd5b928401925b8284101561101a57835163ffffffff8116811461100b5760008081fd5b82529284019290840190610fee565b979650505050505050565b6020808252825182820181905260009190848201906040850190845b8181101561106357835163ffffffff1683529284019291840191600101611041565b50909695505050505050565b600082601f83011261108057600080fd5b81516020611090610fc583610f58565b82815260059290921b840181019181810190868411156110af57600080fd5b8286015b848110156110d35780516110c681610d2f565b83529183019183016110b3565b509695505050505050565b600080604083850312156110f157600080fd5b825167ffffffffffffffff8082111561110957600080fd5b818501915085601f83011261111d57600080fd5b8151602061112d610fc583610f58565b82815260059290921b8401810191818101908984111561114c57600080fd5b948201945b8386101561117a5785518060060b811461116b5760008081fd5b82529482019490820190611151565b9188015191965090935050508082111561119357600080fd5b506111a08582860161106f565b9150509250929050565b6020808252825182820181905260009190848201906040850190845b8181101561106357835160060b835292840192918401916001016111c6565b6000602082840312156111f757600080fd5b5051919050565b60208082526018908201527f4f776e61626c652f63616c6c65722d6e6f742d6f776e6572000000000000000060408201526060019056fea26469706673582212208737002a0f77bf9cdfb49f02a1881b291f600b5c93fdabc39531ace3b3c685c164736f6c634300080f0033",
  "bytecodeSha1": "2cf18395fe3e99f67a835b1255ef31ad7090f332",
  "compiler": {
    "evm_version": "istanbul",
    "optimizer": {
      "enabled": true,
      "runs": 200
    },
    "version": "0.8.15+commit.e14f2714"
  },
  "contractName": "ArbitragePrice",
  "deployedBytecode": "608060405234801561001057600080fd5b50600436106100e95760003560e01c8063715018a61161008c578063beda547911610066578063beda5479146101d1578063cfed246b146101e4578063e30c397814610266578063f2fde38b1461027757600080fd5b8063715018a6146101a55780638292fd84146101ad5780638da5cb5b146101c057600080fd5b80634e71e0c8116100c85780634e71e0c81461015a5780635a1ed7c3146101645780635e997ca31461017757806370b405a51461018a57600080fd5b8062bc574b146100ee57806318d092d614610126578063245a7bfc14610147575b600080fd5b61010973e592427a0aece92de3edee1f18e0157c0586156481565b6040516001600160a01b0390911681526020015b60405180910390f35b610139610134366004610d47565b61028a565b60405190815260200161011d565b600454610109906001600160a01b031681565b610162610366565b005b610139610172366004610d47565b6103ec565b610162610185366004610d6b565b6106c5565b610109731c232f01118cb8b424793ae03f870aa7d0ac7f7781565b6101626108dd565b600354610109906001600160a01b031681565b6000546001600160a01b0316610109565b6101396101df366004610d47565b610922565b6102316101f2366004610d47565b60026020819052600091825260409091208054600182015491909201546001600160a01b039283169291821691811690600160a01b900462ffffff1684565b604080516001600160a01b0395861681529385166020850152919093169082015262ffffff909116606082015260800161011d565b6001546001600160a01b0316610109565b610162610285366004610d47565b610bf8565b6001600160a01b0381811660009081526002602081815260408084208151608081018352815487168152600182015487169381019390935290920154938416818301819052600160a01b90940462ffffff1660608201528151633fabe5a360e21b8152915192939092909184918291849163feaf968c9160048082019260a0929091908290030181865afa158015610326573d6000803e3d6000fd5b505050506040513d601f19601f8201168201806040525081019061034a9190610dee565b505069ffffffffffffffffffff90921698975050505050505050565b6001546001600160a01b031633146103c55760405162461bcd60e51b815260206004820152601f60248201527f4f776e61626c652f63616c6c65722d6e6f742d70656e64696e674f776e65720060448201526064015b60405180910390fd5b6001546103da906001600160a01b0316610cdf565b600180546001600160a01b0319169055565b6001600160a01b03818116600090815260026020818152604080842081516080810183528154871680825260018301548816948201859052919094015495861684830152600160a01b90950462ffffff16606084018190529051630b4c774160e11b815260048101869052602481018390526044810182905293949293859073e592427a0aece92de3edee1f18e0157c0586156490631698ee8290606401602060405180830381865afa1580156104a7573d6000803e3d6000fd5b505050506040513d601f19601f820116820180604052508101906104cb9190610e3e565b90506000816001600160a01b0316633850c7bd6040518163ffffffff1660e01b815260040160e060405180830381865afa15801561050d573d6000803e3d6000fd5b505050506040513d601f19601f820116820180604052508101906105319190610e6d565b50506040516395fc4af560e01b81526001600160a01b038616600482015294955060009473__$6b987ef4b450ce1799bf86fcb8b1f4e805$__94506395fc4af59350602401915061057f9050565b600060405180830381865af415801561059c573d6000803e3d6000fd5b505050506040513d6000823e601f3d908101601f191682016040526105c49190810190610f7c565b90506000836001600160a01b031663883bdbfd836040518263ffffffff1660e01b81526004016105f49190611025565b600060405180830381865afa158015610611573d6000803e3d6000fd5b505050506040513d6000823e601f3d908101601f1916820160405261063991908101906110de565b509050600073__$6b987ef4b450ce1799bf86fcb8b1f4e805$__636022bb7b836040518263ffffffff1660e01b815260040161067591906111aa565b602060405180830381865af4158015610692573d6000803e3d6000fd5b505050506040513d601f19601f820116820180604052508101906106b691906111e5565b9b9a5050505050505050505050565b336106d86000546001600160a01b031690565b6001600160a01b0316146106fe5760405162461bcd60e51b81526004016103bc906111fe565b6001600160a01b03841661076c5760405162461bcd60e51b815260206004820152602f60248201527f41726269747261676550726963653a2073747261746567792063616e6e27742060448201526e6265207a65726f206164647265737360881b60648201526084016103bc565b6001600160a01b0383166107d85760405162461bcd60e51b815260206004820152602d60248201527f41726269747261676550726963653a20746f6b656e412063616e6e277420626560448201526c207a65726f206164647265737360981b60648201526084016103bc565b6001600160a01b0382166108445760405162461bcd60e51b815260206004820152602d60248201527f41726269747261676550726963653a20746f6b656e422063616e6e277420626560448201526c207a65726f206164647265737360981b60648201526084016103bc565b6040805160808101825260008183018181526001600160a01b039687168352948616602080840191825262ffffff95861660608501908152988816835260029081905293909120915182549087166001600160a01b03199182161783559051600183018054918816919092161790559251920180549451909116600160a01b026001600160b81b03199094169190921617919091179055565b336108f06000546001600160a01b031690565b6001600160a01b0316146109165760405162461bcd60e51b81526004016103bc906111fe565b6109206000610cdf565b565b6001600160a01b03818116600090815260026020818152604080842081516080810183528154871680825260018301548816948201859052919094015495861684830152600160a01b90950462ffffff16606084015251630b4c774160e11b81526004810185905260248101829052610bb86044820152929391928490731c232f01118cb8b424793ae03f870aa7d0ac7f7790631698ee8290606401602060405180830381865afa1580156109db573d6000803e3d6000fd5b505050506040513d601f19601f820116820180604052508101906109ff9190610e3e565b90506000816001600160a01b0316633850c7bd6040518163ffffffff1660e01b815260040160e060405180830381865afa158015610a41573d6000803e3d6000fd5b505050506040513d601f19601f82011682018060405250810190610a659190610e6d565b50506040516395fc4af560e01b81526001600160a01b038616600482015294955060009473__$6b987ef4b450ce1799bf86fcb8b1f4e805$__94506395fc4af593506024019150610ab39050565b600060405180830381865af4158015610ad0573d6000803e3d6000fd5b505050506040513d6000823e601f3d908101601f19168201604052610af89190810190610f7c565b90506000836001600160a01b031663883bdbfd836040518263ffffffff1660e01b8152600401610b289190611025565b600060405180830381865afa158015610b45573d6000803e3d6000fd5b505050506040513d6000823e601f3d908101601f19168201604052610b6d91908101906110de565b509050600073__$6b987ef4b450ce1799bf86fcb8b1f4e805$__636022bb7b836040518263ffffffff1660e01b8152600401610ba991906111aa565b602060405180830381865af4158015610bc6573d6000803e3d6000fd5b505050506040513d601f19601f82011682018060405250810190610bea91906111e5565b9a9950505050505050505050565b33610c0b6000546001600160a01b031690565b6001600160a01b031614610c315760405162461bcd60e51b81526004016103bc906111fe565b6001600160a01b038116610c955760405162461bcd60e51b815260206004820152602560248201527f4f776e61626c652f70656e64696e674f776e65722d6e6f742d7a65726f2d6164604482015264647265737360d81b60648201526084016103bc565b600180546001600160a01b0319166001600160a01b0383169081179091556040517f239a2ddded15777fa246aed5f7e1a9bc69a39d4eb4a397034d1d85766cca7d4c90600090a250565b600080546001600160a01b038381166001600160a01b0319831681178455604051919092169283917f8be0079c531659141344cd1fd0a4f28419497f9722a3daafe3b4186f6b6457e09190a35050565b6001600160a01b0381168114610d4457600080fd5b50565b600060208284031215610d5957600080fd5b8135610d6481610d2f565b9392505050565b60008060008060808587031215610d8157600080fd5b8435610d8c81610d2f565b93506020850135610d9c81610d2f565b92506040850135610dac81610d2f565b9150606085013562ffffff81168114610dc457600080fd5b939692955090935050565b805169ffffffffffffffffffff81168114610de957600080fd5b919050565b600080600080600060a08688031215610e0657600080fd5b610e0f86610dcf565b9450602086015193506040860151925060608601519150610e3260808701610dcf565b90509295509295909350565b600060208284031215610e5057600080fd5b8151610d6481610d2f565b805161ffff81168114610de957600080fd5b600080600080600080600060e0888a031215610e8857600080fd5b8751610e9381610d2f565b8097505060208801518060020b8114610eab57600080fd5b9550610eb960408901610e5b565b9450610ec760608901610e5b565b9350610ed560808901610e5b565b925060a088015160ff81168114610eeb57600080fd5b60c08901519092508015158114610f0157600080fd5b8091505092959891949750929550565b634e487b7160e01b600052604160045260246000fd5b604051601f8201601f1916810167ffffffffffffffff81118282101715610f5057610f50610f11565b604052919050565b600067ffffffffffffffff821115610f7257610f72610f11565b5060051b60200190565b60006020808385031215610f8f57600080fd5b825167ffffffffffffffff811115610fa657600080fd5b8301601f81018513610fb757600080fd5b8051610fca610fc582610f58565b610f27565b81815260059190911b82018301908381019087831115610fe957600080fd5b928401925b8284101561101a57835163ffffffff8116811461100b5760008081fd5b82529284019290840190610fee565b979650505050505050565b6020808252825182820181905260009190848201906040850190845b8181101561106357835163ffffffff1683529284019291840191600101611041565b50909695505050505050565b600082601f83011261108057600080fd5b81516020611090610fc583610f58565b82815260059290921b840181019181810190868411156110af57600080fd5b8286015b848110156110d35780516110c681610d2f565b83529183019183016110b3565b509695505050505050565b600080604083850312156110f157600080fd5b825167ffffffffffffffff8082111561110957600080fd5b818501915085601f83011261111d57600080fd5b8151602061112d610fc583610f58565b82815260059290921b8401810191818101908984111561114c57600080fd5b948201945b8386101561117a5785518060060b811461116b5760008081fd5b82529482019490820190611151565b9188015191965090935050508082111561119357600080fd5b506111a08582860161106f565b9150509250929050565b6020808252825182820181905260009190848201906040850190845b8181101561106357835160060b835292840192918401916001016111c6565b6000602082840312156111f757600080fd5b5051919050565b60208082526018908201527f4f776e61626c652f63616c6c65722d6e6f742d6f776e6572000000000000000060408201526060019056fea26469706673582212208737002a0f77bf9cdfb49f02a1881b291f600b5c93fdabc39531ace3b3c685c164736f6c634300080f0033",
  "language": "Solidity",
  "natspec": {
    "kind": "dev",
    "methods": {
      "claimOwnership()": {
        "details": "This function is only callable by the `_pendingOwner`.",
        "notice": "Allows the `_pendingOwner` address to finalize the transfer."
      },
      "owner()": {
        "notice": "Returns the address of the current owner."
      },
      "pendingOwner()": {
        "notice": "Gets current `_pendingOwner`.",
        "returns": {
          "_0": "Current `_pendingOwner` address."
        }
      },
      "renounceOwnership()": {
        "details": "Leaves the contract without owner. It will not be possible to call `onlyOwner` functions anymore. Can only be called by the current owner. NOTE: Renouncing ownership will leave the contract without an owner, thereby removing any functionality that is only available to the owner.",
        "notice": "Renounce ownership of the contract."
      },
      "transferOwnership(address)": {
        "notice": "Allows current owner to set the `_pendingOwner` address.",
        "params": {
          "_newOwner": "Address to transfer ownership to."
        }
      }
    },
    "version": 1
  },
  "opcodes": "PUSH1 0x80 PUSH1 0x40 MSTORE CALLVALUE DUP1 ISZERO PUSH2 0x10 JUMPI PUSH1 0x0 DUP1 REVERT JUMPDEST POP PUSH1 0x4 CALLDATASIZE LT PUSH2 0xE9 JUMPI PUSH1 0x0 CALLDATALOAD PUSH1 0xE0 SHR DUP1 PUSH4 0x715018A6 GT PUSH2 0x8C JUMPI DUP1 PUSH4 0xBEDA5479 GT PUSH2 0x66 JUMPI DUP1 PUSH4 0xBEDA5479 EQ PUSH2 0x1D1 JUMPI DUP1 PUSH4 0xCFED246B EQ PUSH2 0x1E4 JUMPI DUP1 PUSH4 0xE30C3978 EQ PUSH2 0x266 JUMPI DUP1 PUSH4 0xF2FDE38B EQ PUSH2 0x277 JUMPI PUSH1 0x0 DUP1 REVERT JUMPDEST DUP1 PUSH4 0x715018A6 EQ PUSH2 0x1A5 JUMPI DUP1 PUSH4 0x8292FD84 EQ PUSH2 0x1AD JUMPI DUP1 PUSH4 0x8DA5CB5B EQ PUSH2 0x1C0 JUMPI PUSH1 0x0 DUP1 REVERT JUMPDEST DUP1 PUSH4 0x4E71E0C8 GT PUSH2 0xC8 JUMPI DUP1 PUSH4 0x4E71E0C8 EQ PUSH2 0x15A JUMPI DUP1 PUSH4 0x5A1ED7C3 EQ PUSH2 0x164 JUMPI DUP1 PUSH4 0x5E997CA3 EQ PUSH2 0x177 JUMPI DUP1 PUSH4 0x70B405A5 EQ PUSH2 0x18A JUMPI PUSH1 0x0 DUP1 REVERT JUMPDEST DUP1 PUSH3 0xBC574B EQ PUSH2 0xEE JUMPI DUP1 PUSH4 0x18D092D6 EQ PUSH2 0x126 JUMPI DUP1 PUSH4 0x245A7BFC EQ PUSH2 0x147 JUMPI JUMPDEST PUSH1 0x0 DUP1 REVERT JUMPDEST PUSH2 0x109 PUSH20 0xE592427A0AECE92DE3EDEE1F18E0157C05861564 DUP2 JUMP JUMPDEST PUSH1 0x40 MLOAD PUSH1 0x1 PUSH1 0x1 PUSH1 0xA0 SHL SUB SWAP1 SWAP2 AND DUP2 MSTORE PUSH1 0x20 ADD JUMPDEST PUSH1 0x40 MLOAD DUP1 SWAP2 SUB SWAP1 RETURN JUMPDEST PUSH2 0x139 PUSH2 0x134 CALLDATASIZE PUSH1 0x4 PUSH2 0xD47 JUMP JUMPDEST PUSH2 0x28A JUMP JUMPDEST PUSH1 0x40 MLOAD SWAP1 DUP2 MSTORE PUSH1 0x20 ADD PUSH2 0x11D JUMP JUMPDEST PUSH1 0x4 SLOAD PUSH2 0x109 SWAP1 PUSH1 0x1 PUSH1 0x1 PUSH1 0xA0 SHL SUB AND DUP2 JUMP JUMPDEST PUSH2 0x162 PUSH2 0x366 JUMP JUMPDEST STOP JUMPDEST PUSH2 0x139 PUSH2 0x172 CALLDATASIZE PUSH1 0x4 PUSH2 0xD47 JUMP JUMPDEST PUSH2 0x3EC JUMP JUMPDEST PUSH2 0x162 PUSH2 0x185 CALLDATASIZE PUSH1 0x4 PUSH2 0xD6B JUMP JUMPDEST PUSH2 0x6C5 JUMP JUMPDEST PUSH2 0x109 PUSH20 0x1C232F01118CB8B424793AE03F870AA7D0AC7F77 DUP2 JUMP JUMPDEST PUSH2 0x162 PUSH2 0x8DD JUMP JUMPDEST PUSH1 0x3 SLOAD PUSH2 0x109 SWAP1 PUSH1 0x1 PUSH1 0x1 PUSH1 0xA0 SHL SUB AND DUP2 JUMP JUMPDEST PUSH1 0x0 SLOAD PUSH1 0x1 PUSH1 0x1 PUSH1 0xA0 SHL SUB AND PUSH2 0x109 JUMP JUMPDEST PUSH2 0x139 PUSH2 0x1DF CALLDATASIZE PUSH1 0x4 PUSH2 0xD47 JUMP JUMPDEST PUSH2 0x922 JUMP JUMPDEST PUSH2 0x231 PUSH2 0x1F2 CALLDATASIZE PUSH1 0x4 PUSH2 0xD47 JUMP JUMPDEST PUSH1 0x2 PUSH1 0x20 DUP2 SWAP1 MSTORE PUSH1 0x0 SWAP2 DUP3 MSTORE PUSH1 0x40 SWAP1 SWAP2 KECCAK256 DUP1 SLOAD PUSH1 0x1 DUP3 ADD SLOAD SWAP2 SWAP1 SWAP3 ADD SLOAD PUSH1 0x1 PUSH1 0x1 PUSH1 0xA0 SHL SUB SWAP3 DUP4 AND SWAP3 SWAP2 DUP3 AND SWAP2 DUP2 AND SWAP1 PUSH1 0x1 PUSH1 0xA0 SHL SWAP1 DIV PUSH3 0xFFFFFF AND DUP5 JUMP JUMPDEST PUSH1 0x40 DUP1 MLOAD PUSH1 0x1 PUSH1 0x1 PUSH1 0xA0 SHL SUB SWAP6 DUP7 AND DUP2 MSTORE SWAP4 DUP6 AND PUSH1 0x20 DUP6 ADD MSTORE SWAP2 SWAP1 SWAP4 AND SWAP1 DUP3 ADD MSTORE PUSH3 0xFFFFFF SWAP1 SWAP2 AND PUSH1 0x60 DUP3 ADD MSTORE PUSH1 0x80 ADD PUSH2 0x11D JUMP JUMPDEST PUSH1 0x1 SLOAD PUSH1 0x1 PUSH1 0x1 PUSH1 0xA0 SHL SUB AND PUSH2 0x109 JUMP JUMPDEST PUSH2 0x162 PUSH2 0x285 CALLDATASIZE PUSH1 0x4 PUSH2 0xD47 JUMP JUMPDEST PUSH2 0xBF8 JUMP JUMPDEST PUSH1 0x1 PUSH1 0x1 PUSH1 0xA0 SHL SUB DUP2 DUP2 AND PUSH1 0x0 SWAP1 DUP2 MSTORE PUSH1 0x2 PUSH1 0x20 DUP2 DUP2 MSTORE PUSH1 0x40 DUP1 DUP5 KECCAK256 DUP2 MLOAD PUSH1 0x80 DUP2 ADD DUP4 MSTORE DUP2 SLOAD DUP8 AND DUP2 MSTORE PUSH1 0x1 DUP3 ADD SLOAD DUP8 AND SWAP4 DUP2 ADD SWAP4 SWAP1 SWAP4 MSTORE SWAP1 SWAP3 ADD SLOAD SWAP4 DUP5 AND DUP2 DUP4 ADD DUP2 SWAP1 MSTORE PUSH1 0x1 PUSH1 0xA0 SHL SWAP1 SWAP5 DIV PUSH3 0xFFFFFF AND PUSH1 0x60 DUP3 ADD MSTORE DUP2 MLOAD PUSH4 0x3FABE5A3 PUSH1 0xE2 SHL DUP2 MSTORE SWAP2 MLOAD SWAP3 SWAP4 SWAP1 SWAP3 SWAP1 SWAP2 DUP5 SWAP2 DUP3 SWAP2 DUP5 SWAP2 PUSH4 0xFEAF968C SWAP2 PUSH1 0x4 DUP1 DUP3 ADD SWAP3 PUSH1 0xA0 SWAP3 SWAP1 SWAP2 SWAP1 DUP3 SWAP1 SUB ADD DUP2 DUP7 GAS STATICCALL ISZERO DUP1 ISZERO PUSH2 0x326 JUMPI RETURNDATASIZE PUSH1 0x0 DUP1 RETURNDATACOPY RETURNDATASIZE PUSH1 0x0 REVERT JUMPDEST POP POP POP POP PUSH1 0x40 MLOAD RETURNDATASIZE PUSH1 0x1F NOT PUSH1 0x1F DUP3 ADD AND DUP3 ADD DUP1 PUSH1 0x40 MSTORE POP DUP2 ADD SWAP1 PUSH2 0x34A SWAP2 SWAP1 PUSH2 0xDEE JUMP JUMPDEST POP POP PUSH10 0xFFFFFFFFFFFFFFFFFFFF SWAP1 SWAP3 AND SWAP9 SWAP8 POP POP POP POP POP POP POP POP JUMP JUMPDEST PUSH1 0x1 SLOAD PUSH1 0x1 PUSH1 0x1 PUSH1 0xA0 SHL SUB AND CALLER EQ PUSH2 0x3C5 JUMPI PUSH1 0x40 MLOAD PUSH3 0x461BCD PUSH1 0xE5 SHL DUP2 MSTORE PUSH1 0x20 PUSH1 0x4 DUP3 ADD MSTORE PUSH1 0x1F PUSH1 0x24 DUP3 ADD MSTORE PUSH32 0x4F776E61626C652F63616C6C65722D6E6F742D70656E64696E674F776E657200 PUSH1 0x44 DUP3 ADD MSTORE PUSH1 0x64 ADD JUMPDEST PUSH1 0x40 MLOAD DUP1 SWAP2 SUB SWAP1 REVERT JUMPDEST PUSH1 0x1 SLOAD PUSH2 0x3DA SWAP1 PUSH1 0x1 PUSH1 0x1 PUSH1 0xA0 SHL SUB AND PUSH2 0xCDF JUMP JUMPDEST PUSH1 0x1 DUP1 SLOAD PUSH1 0x1 PUSH1 0x1 PUSH1 0xA0 SHL SUB NOT AND SWAP1 SSTORE JUMP JUMPDEST PUSH1 0x1 PUSH1 0x1 PUSH1 0xA0 SHL SUB DUP2 DUP2 AND PUSH1 0x0 SWAP1 DUP2 MSTORE PUSH1 0x2 PUSH1 0x20 DUP2 DUP2 MSTORE PUSH1 0x40 DUP1 DUP5 KECCAK256 DUP2 MLOAD PUSH1 0x80 DUP2 ADD DUP4 MSTORE DUP2 SLOAD DUP8 AND DUP1 DUP3 MSTORE PUSH1 0x1 DUP4 ADD SLOAD DUP9 AND SWAP5 DUP3 ADD DUP6 SWAP1 MSTORE SWAP2 SWAP1 SWAP5 ADD SLOAD SWAP6 DUP7 AND DUP5 DUP4 ADD MSTORE PUSH1 0x1 PUSH1 0xA0 SHL SWAP1 SWAP6 DIV PUSH3 0xFFFFFF AND PUSH1 0x60 DUP5 ADD DUP2 SWAP1 MSTORE SWAP1 MLOAD PUSH4 0xB4C7741 PUSH1 0xE1 SHL DUP2 MSTORE PUSH1 0x4 DUP2 ADD DUP7 SWAP1 MSTORE PUSH1 0x24 DUP2 ADD DUP4 SWAP1 MSTORE PUSH1 0x44 DUP2 ADD DUP3 SWAP1 MSTORE SWAP4 SWAP5 SWAP3 SWAP4 DUP6 SWAP1 PUSH20 0xE592427A0AECE92DE3EDEE1F18E0157C05861564 SWAP1 PUSH4 0x1698EE82 SWAP1 PUSH1 0x64 ADD PUSH1 0x20 PUSH1 0x40 MLOAD DUP1 DUP4 SUB DUP2 DUP7 GAS STATICCALL ISZERO DUP1 ISZERO PUSH2 0x4A7 JUMPI RETURNDATASIZE PUSH1 0x0 DUP1 RETURNDATACOPY RETURNDATASIZE PUSH1 0x0 REVERT JUMPDEST POP POP POP POP PUSH1 0x40 MLOAD RETURNDATASIZE PUSH1 0x1F NOT PUSH1 0x1F DUP3 ADD AND DUP3 ADD DUP1 PUSH1 0x40 MSTORE POP DUP2 ADD SWAP1 PUSH2 0x4CB SWAP2 SWAP1 PUSH2 0xE3E JUMP JUMPDEST SWAP1 POP PUSH1 0x0 DUP2 PUSH1 0x1 PUSH1 0x1 PUSH1 0xA0 SHL SUB AND PUSH4 0x3850C7BD PUSH1 0x40 MLOAD DUP2 PUSH4 0xFFFFFFFF AND PUSH1 0xE0 SHL DUP2 MSTORE PUSH1 0x4 ADD PUSH1 0xE0 PUSH1 0x40 MLOAD DUP1 DUP4 SUB DUP2 DUP7 GAS STATICCALL ISZERO DUP1 ISZERO PUSH2 0x50D JUMPI RETURNDATASIZE PUSH1 0x0 DUP1 RETURNDATACOPY RETURNDATASIZE PUSH1 0x0 REVERT JUMPDEST POP POP POP POP PUSH1 0x40 MLOAD RETURNDATASIZE PUSH1 0x1F NOT PUSH1 0x1F DUP3 ADD AND DUP3 ADD DUP1 PUSH1 0x40 MSTORE POP DUP2 ADD SWAP1 PUSH2 0x531 SWAP2 SWAP1 PUSH2 0xE6D JUMP JUMPDEST POP POP PUSH1 0x40 MLOAD PUSH4 0x95FC4AF5 PUSH1 0xE0 SHL DUP2 MSTORE PUSH1 0x1 PUSH1 0x1 PUSH1 0xA0 SHL SUB DUP7 AND PUSH1 0x4 DUP3 ADD MSTORE SWAP5 SWAP6 POP PUSH1 0x0 SWAP5 PUSH20 0x0 SWAP5 POP PUSH4 0x95FC4AF5 SWAP4 POP PUSH1 0x24 ADD SWAP2 POP PUSH2 0x57F SWAP1 POP JUMP JUMPDEST PUSH1 0x0 PUSH1 0x40 MLOAD DUP1 DUP4 SUB DUP2 DUP7 GAS DELEGATECALL ISZERO DUP1 ISZERO PUSH2 0x59C JUMPI RETURNDATASIZE PUSH1 0x0 DUP1 RETURNDATACOPY RETURNDATASIZE PUSH1 0x0 REVERT JUMPDEST POP POP POP POP PUSH1 0x40 MLOAD RETURNDATASIZE PUSH1 0x0 DUP3 RETURNDATACOPY PUSH1 0x1F RETURNDATASIZE SWAP1 DUP2 ADD PUSH1 0x1F NOT AND DUP3 ADD PUSH1 0x40 MSTORE PUSH2 0x5C4 SWAP2 SWAP1 DUP2 ADD SWAP1 PUSH2 0xF7C JUMP JUMPDEST SWAP1 POP PUSH1 0x0 DUP4 PUSH1 0x1 PUSH1 0x1 PUSH1 0xA0 SHL SUB AND PUSH4 0x883BDBFD DUP4 PUSH1 0x40 MLOAD DUP3 PUSH4 0xFFFFFFFF AND PUSH1 0xE0 SHL DUP2 MSTORE PUSH1 0x4 ADD PUSH2 0x5F4 SWAP2 SWAP1 PUSH2 0x1025 JUMP JUMPDEST PUSH1 0x0 PUSH1 0x40 MLOAD DUP1 DUP4 SUB DUP2 DUP7 GAS STATICCALL ISZERO DUP1 ISZERO PUSH2 0x611 JUMPI RETURNDATASIZE PUSH1 0x0 DUP1 RETURNDATACOPY RETURNDATASIZE PUSH1 0x0 REVERT JUMPDEST POP POP POP POP PUSH1 0x40 MLOAD RETURNDATASIZE PUSH1 0x0 DUP3 RETURNDATACOPY PUSH1 0x1F RETURNDATASIZE SWAP1 DUP2 ADD PUSH1 0x1F NOT AND DUP3 ADD PUSH1 0x40 MSTORE PUSH2 0x639 SWAP2 SWAP1 DUP2 ADD SWAP1 PUSH2 0x10DE JUMP JUMPDEST POP SWAP1 POP PUSH1 0x0 PUSH20 0x0 PUSH4 0x6022BB7B DUP4 PUSH1 0x40 MLOAD DUP3 PUSH4 0xFFFFFFFF AND PUSH1 0xE0 SHL DUP2 MSTORE PUSH1 0x4 ADD PUSH2 0x675 SWAP2 SWAP1 PUSH2 0x11AA JUMP JUMPDEST PUSH1 0x20 PUSH1 0x40 MLOAD DUP1 DUP4 SUB DUP2 DUP7 GAS DELEGATECALL ISZERO DUP1 ISZERO PUSH2 0x692 JUMPI RETURNDATASIZE PUSH1 0x0 DUP1 RETURNDATACOPY RETURNDATASIZE PUSH1 0x0 REVERT JUMPDEST POP POP POP POP PUSH1 0x40 MLOAD RETURNDATASIZE PUSH1 0x1F NOT PUSH1 0x1F DUP3 ADD AND DUP3 ADD DUP1 PUSH1 0x40 MSTORE POP DUP2 ADD SWAP1 PUSH2 0x6B6 SWAP2 SWAP1 PUSH2 0x11E5 JUMP JUMPDEST SWAP12 SWAP11 POP POP POP POP POP POP POP POP POP POP POP JUMP JUMPDEST CALLER PUSH2 0x6D8 PUSH1 0x0 SLOAD PUSH1 0x1 PUSH1 0x1 PUSH1 0xA0 SHL SUB AND SWAP1 JUMP JUMPDEST PUSH1 0x1 PUSH1 0x1 PUSH1 0xA0 SHL SUB AND EQ PUSH2 0x6FE JUMPI PUSH1 0x40 MLOAD PUSH3 0x461BCD PUSH1 0xE5 SHL DUP2 MSTORE PUSH1 0x4 ADD PUSH2 0x3BC SWAP1 PUSH2 0x11FE JUMP JUMPDEST PUSH1 0x1 PUSH1 0x1 PUSH1 0xA0 SHL SUB DUP5 AND PUSH2 0x76C JUMPI PUSH1 0x40 MLOAD PUSH3 0x461BCD PUSH1 0xE5 SHL DUP2 MSTORE PUSH1 0x20 PUSH1 0x4 DUP3 ADD MSTORE PUSH1 0x2F PUSH1 0x24 DUP3 ADD MSTORE PUSH32 0x41726269747261676550726963653A2073747261746567792063616E6E277420 PUSH1 0x44 DUP3 ADD MSTORE PUSH15 0x6265207A65726F2061646472657373 PUSH1 0x88 SHL PUSH1 0x64 DUP3 ADD MSTORE PUSH1 0x84 ADD PUSH2 0x3BC JUMP JUMPDEST PUSH1 0x1 PUSH1 0x1 PUSH1 0xA0 SHL SUB DUP4 AND PUSH2 0x7D8 JUMPI PUSH1 0x40 MLOAD PUSH3 0x461BCD PUSH1 0xE5 SHL DUP2 MSTORE PUSH1 0x20 PUSH1 0x4 DUP3 ADD MSTORE PUSH1 0x2D PUSH1 0x24 DUP3 ADD MSTORE PUSH32 0x41726269747261676550726963653A20746F6B656E412063616E6E2774206265 PUSH1 0x44 DUP3 ADD MSTORE PUSH13 0x207A65726F2061646472657373 PUSH1 0x98 SHL PUSH1 0x64 DUP3 ADD MSTORE PUSH1 0x84 ADD PUSH2 0x3BC JUMP JUMPDEST PUSH1 0x1 PUSH1 0x1 PUSH1 0xA0 SHL SUB DUP3 AND PUSH2 0x844 JUMPI PUSH1 0x40 MLOAD PUSH3 0x461BCD PUSH1 0xE5 SHL DUP2 MSTORE PUSH1 0x20 PUSH1 0x4 DUP3 ADD MSTORE PUSH1 0x2D PUSH1 0x24 DUP3 ADD MSTORE PUSH32 0x41726269747261676550726963653A20746F6B656E422063616E6E2774206265 PUSH1 0x44 DUP3 ADD MSTORE PUSH13 0x207A65726F2061646472657373 PUSH1 0x98 SHL PUSH1 0x64 DUP3 ADD MSTORE PUSH1 0x84 ADD PUSH2 0x3BC JUMP JUMPDEST PUSH1 0x40 DUP1 MLOAD PUSH1 0x80 DUP2 ADD DUP3 MSTORE PUSH1 0x0 DUP2 DUP4 ADD DUP2 DUP2 MSTORE PUSH1 0x1 PUSH1 0x1 PUSH1 0xA0 SHL SUB SWAP7 DUP8 AND DUP4 MSTORE SWAP5 DUP7 AND PUSH1 0x20 DUP1 DUP5 ADD SWAP2 DUP3 MSTORE PUSH3 0xFFFFFF SWAP6 DUP7 AND PUSH1 0x60 DUP6 ADD SWAP1 DUP2 MSTORE SWAP9 DUP9 AND DUP4 MSTORE PUSH1 0x2 SWAP1 DUP2 SWAP1 MSTORE SWAP4 SWAP1 SWAP2 KECCAK256 SWAP2 MLOAD DUP3 SLOAD SWAP1 DUP8 AND PUSH1 0x1 PUSH1 0x1 PUSH1 0xA0 SHL SUB NOT SWAP2 DUP3 AND OR DUP4 SSTORE SWAP1 MLOAD PUSH1 0x1 DUP4 ADD DUP1 SLOAD SWAP2 DUP9 AND SWAP2 SWAP1 SWAP3 AND OR SWAP1 SSTORE SWAP3 MLOAD SWAP3 ADD DUP1 SLOAD SWAP5 MLOAD SWAP1 SWAP2 AND PUSH1 0x1 PUSH1 0xA0 SHL MUL PUSH1 0x1 PUSH1 0x1 PUSH1 0xB8 SHL SUB NOT SWAP1 SWAP5 AND SWAP2 SWAP1 SWAP3 AND OR SWAP2 SWAP1 SWAP2 OR SWAP1 SSTORE JUMP JUMPDEST CALLER PUSH2 0x8F0 PUSH1 0x0 SLOAD PUSH1 0x1 PUSH1 0x1 PUSH1 0xA0 SHL SUB AND SWAP1 JUMP JUMPDEST PUSH1 0x1 PUSH1 0x1 PUSH1 0xA0 SHL SUB AND EQ PUSH2 0x916 JUMPI PUSH1 0x40 MLOAD PUSH3 0x461BCD PUSH1 0xE5 SHL DUP2 MSTORE PUSH1 0x4 ADD PUSH2 0x3BC SWAP1 PUSH2 0x11FE JUMP JUMPDEST PUSH2 0x920 PUSH1 0x0 PUSH2 0xCDF JUMP JUMPDEST JUMP JUMPDEST PUSH1 0x1 PUSH1 0x1 PUSH1 0xA0 SHL SUB DUP2 DUP2 AND PUSH1 0x0 SWAP1 DUP2 MSTORE PUSH1 0x2 PUSH1 0x20 DUP2 DUP2 MSTORE PUSH1 0x40 DUP1 DUP5 KECCAK256 DUP2 MLOAD PUSH1 0x80 DUP2 ADD DUP4 MSTORE DUP2 SLOAD DUP8 AND DUP1 DUP3 MSTORE PUSH1 0x1 DUP4 ADD SLOAD DUP9 AND SWAP5 DUP3 ADD DUP6 SWAP1 MSTORE SWAP2 SWAP1 SWAP5 ADD SLOAD SWAP6 DUP7 AND DUP5 DUP4 ADD MSTORE PUSH1 0x1 PUSH1 0xA0 SHL SWAP1 SWAP6 DIV PUSH3 0xFFFFFF AND PUSH1 0x60 DUP5 ADD MSTORE MLOAD PUSH4 0xB4C7741 PUSH1 0xE1 SHL DUP2 MSTORE PUSH1 0x4 DUP2 ADD DUP6 SWAP1 MSTORE PUSH1 0x24 DUP2 ADD DUP3 SWAP1 MSTORE PUSH2 0xBB8 PUSH1 0x44 DUP3 ADD MSTORE SWAP3 SWAP4 SWAP2 SWAP3 DUP5 SWAP1 PUSH20 0x1C232F01118CB8B424793AE03F870AA7D0AC7F77 SWAP1 PUSH4 0x1698EE82 SWAP1 PUSH1 0x64 ADD PUSH1 0x20 PUSH1 0x40 MLOAD DUP1 DUP4 SUB DUP2 DUP7 GAS STATICCALL ISZERO DUP1 ISZERO PUSH2 0x9DB JUMPI RETURNDATASIZE PUSH1 0x0 DUP1 RETURNDATACOPY RETURNDATASIZE PUSH1 0x0 REVERT JUMPDEST POP POP POP POP PUSH1 0x40 MLOAD RETURNDATASIZE PUSH1 0x1F NOT PUSH1 0x1F DUP3 ADD AND DUP3 ADD DUP1 PUSH1 0x40 MSTORE POP DUP2 ADD SWAP1 PUSH2 0x9FF SWAP2 SWAP1 PUSH2 0xE3E JUMP JUMPDEST SWAP1 POP PUSH1 0x0 DUP2 PUSH1 0x1 PUSH1 0x1 PUSH1 0xA0 SHL SUB AND PUSH4 0x3850C7BD PUSH1 0x40 MLOAD DUP2 PUSH4 0xFFFFFFFF AND PUSH1 0xE0 SHL DUP2 MSTORE PUSH1 0x4 ADD PUSH1 0xE0 PUSH1 0x40 MLOAD DUP1 DUP4 SUB DUP2 DUP7 GAS STATICCALL ISZERO DUP1 ISZERO PUSH2 0xA41 JUMPI RETURNDATASIZE PUSH1 0x0 DUP1 RETURNDATACOPY RETURNDATASIZE PUSH1 0x0 REVERT JUMPDEST POP POP POP POP PUSH1 0x40 MLOAD RETURNDATASIZE PUSH1 0x1F NOT PUSH1 0x1F DUP3 ADD AND DUP3 ADD DUP1 PUSH1 0x40 MSTORE POP DUP2 ADD SWAP1 PUSH2 0xA65 SWAP2 SWAP1 PUSH2 0xE6D JUMP JUMPDEST POP POP PUSH1 0x40 MLOAD PUSH4 0x95FC4AF5 PUSH1 0xE0 SHL DUP2 MSTORE PUSH1 0x1 PUSH1 0x1 PUSH1 0xA0 SHL SUB DUP7 AND PUSH1 0x4 DUP3 ADD MSTORE SWAP5 SWAP6 POP PUSH1 0x0 SWAP5 PUSH20 0x0 SWAP5 POP PUSH4 0x95FC4AF5 SWAP4 POP PUSH1 0x24 ADD SWAP2 POP PUSH2 0xAB3 SWAP1 POP JUMP JUMPDEST PUSH1 0x0 PUSH1 0x40 MLOAD DUP1 DUP4 SUB DUP2 DUP7 GAS DELEGATECALL ISZERO DUP1 ISZERO PUSH2 0xAD0 JUMPI RETURNDATASIZE PUSH1 0x0 DUP1 RETURNDATACOPY RETURNDATASIZE PUSH1 0x0 REVERT JUMPDEST POP POP POP POP PUSH1 0x40 MLOAD RETURNDATASIZE PUSH1 0x0 DUP3 RETURNDATACOPY PUSH1 0x1F RETURNDATASIZE SWAP1 DUP2 ADD PUSH1 0x1F NOT AND DUP3 ADD PUSH1 0x40 MSTORE PUSH2 0xAF8 SWAP2 SWAP1 DUP2 ADD SWAP1 PUSH2 0xF7C JUMP JUMPDEST SWAP1 POP PUSH1 0x0 DUP4 PUSH1 0x1 PUSH1 0x1 PUSH1 0xA0 SHL SUB AND PUSH4 0x883BDBFD DUP4 PUSH1 0x40 MLOAD DUP3 PUSH4 0xFFFFFFFF AND PUSH1 0xE0 SHL DUP2 MSTORE PUSH1 0x4 ADD PUSH2 0xB28 SWAP2 SWAP1 PUSH2 0x1025 JUMP JUMPDEST PUSH1 0x0 PUSH1 0x40 MLOAD DUP1 DUP4 SUB DUP2 DUP7 GAS STATICCALL ISZERO DUP1 ISZERO PUSH2 0xB45 JUMPI RETURNDATASIZE PUSH1 0x0 DUP1 RETURNDATACOPY RETURNDATASIZE PUSH1 0x0 REVERT JUMPDEST POP POP POP POP PUSH1 0x40 MLOAD RETURNDATASIZE PUSH1 0x0 DUP3 RETURNDATACOPY PUSH1 0x1F RETURNDATASIZE SWAP1 DUP2 ADD PUSH1 0x1F NOT AND DUP3 ADD PUSH1 0x40 MSTORE PUSH2 0xB6D SWAP2 SWAP1 DUP2 ADD SWAP1 PUSH2 0x10DE JUMP JUMPDEST POP SWAP1 POP PUSH1 0x0 PUSH20 0x0 PUSH4 0x6022BB7B DUP4 PUSH1 0x40 MLOAD DUP3 PUSH4 0xFFFFFFFF AND PUSH1 0xE0 SHL DUP2 MSTORE PUSH1 0x4 ADD PUSH2 0xBA9 SWAP2 SWAP1 PUSH2 0x11AA JUMP JUMPDEST PUSH1 0x20 PUSH1 0x40 MLOAD DUP1 DUP4 SUB DUP2 DUP7 GAS DELEGATECALL ISZERO DUP1 ISZERO PUSH2 0xBC6 JUMPI RETURNDATASIZE PUSH1 0x0 DUP1 RETURNDATACOPY RETURNDATASIZE PUSH1 0x0 REVERT JUMPDEST POP POP POP POP PUSH1 0x40 MLOAD RETURNDATASIZE PUSH1 0x1F NOT PUSH1 0x1F DUP3 ADD AND DUP3 ADD DUP1 PUSH1 0x40 MSTORE POP DUP2 ADD SWAP1 PUSH2 0xBEA SWAP2 SWAP1 PUSH2 0x11E5 JUMP JUMPDEST SWAP11 SWAP10 POP POP POP POP POP POP POP POP POP POP JUMP JUMPDEST CALLER PUSH2 0xC0B PUSH1 0x0 SLOAD PUSH1 0x1 PUSH1 0x1 PUSH1 0xA0 SHL SUB AND SWAP1 JUMP JUMPDEST PUSH1 0x1 PUSH1 0x1 PUSH1 0xA0 SHL SUB AND EQ PUSH2 0xC31 JUMPI PUSH1 0x40 MLOAD PUSH3 0x461BCD PUSH1 0xE5 SHL DUP2 MSTORE PUSH1 0x4 ADD PUSH2 0x3BC SWAP1 PUSH2 0x11FE JUMP JUMPDEST PUSH1 0x1 PUSH1 0x1 PUSH1 0xA0 SHL SUB DUP2 AND PUSH2 0xC95 JUMPI PUSH1 0x40 MLOAD PUSH3 0x461BCD PUSH1 0xE5 SHL DUP2 MSTORE PUSH1 0x20 PUSH1 0x4 DUP3 ADD MSTORE PUSH1 0x25 PUSH1 0x24 DUP3 ADD MSTORE PUSH32 0x4F776E61626C652F70656E64696E674F776E65722D6E6F742D7A65726F2D6164 PUSH1 0x44 DUP3 ADD MSTORE PUSH5 0x6472657373 PUSH1 0xD8 SHL PUSH1 0x64 DUP3 ADD MSTORE PUSH1 0x84 ADD PUSH2 0x3BC JUMP JUMPDEST PUSH1 0x1 DUP1 SLOAD PUSH1 0x1 PUSH1 0x1 PUSH1 0xA0 SHL SUB NOT AND PUSH1 0x1 PUSH1 0x1 PUSH1 0xA0 SHL SUB DUP4 AND SWAP1 DUP2 OR SWAP1 SWAP2 SSTORE PUSH1 0x40 MLOAD PUSH32 0x239A2DDDED15777FA246AED5F7E1A9BC69A39D4EB4A397034D1D85766CCA7D4C SWAP1 PUSH1 0x0 SWAP1 LOG2 POP JUMP JUMPDEST PUSH1 0x0 DUP1 SLOAD PUSH1 0x1 PUSH1 0x1 PUSH1 0xA0 SHL SUB DUP4 DUP2 AND PUSH1 0x1 PUSH1 0x1 PUSH1 0xA0 SHL SUB NOT DUP4 AND DUP2 OR DUP5 SSTORE PUSH1 0x40 MLOAD SWAP2 SWAP1 SWAP3 AND SWAP3 DUP4 SWAP2 PUSH32 0x8BE0079C531659141344CD1FD0A4F28419497F9722A3DAAFE3B4186F6B6457E0 SWAP2 SWAP1 LOG3 POP POP JUMP JUMPDEST PUSH1 0x1 PUSH1 0x1 PUSH1 0xA0 SHL SUB DUP2 AND DUP2 EQ PUSH2 0xD44 JUMPI PUSH1 0x0 DUP1 REVERT JUMPDEST POP JUMP JUMPDEST PUSH1 0x0 PUSH1 0x20 DUP3 DUP5 SUB SLT ISZERO PUSH2 0xD59 JUMPI PUSH1 0x0 DUP1 REVERT JUMPDEST DUP2 CALLDATALOAD PUSH2 0xD64 DUP2 PUSH2 0xD2F JUMP JUMPDEST SWAP4 SWAP3 POP POP POP JUMP JUMPDEST PUSH1 0x0 DUP1 PUSH1 0x0 DUP1 PUSH1 0x80 DUP6 DUP8 SUB SLT ISZERO PUSH2 0xD81 JUMPI PUSH1 0x0 DUP1 REVERT JUMPDEST DUP5 CALLDATALOAD PUSH2 0xD8C DUP2 PUSH2 0xD2F JUMP JUMPDEST SWAP4 POP PUSH1 0x20 DUP6 ADD CALLDATALOAD PUSH2 0xD9C DUP2 PUSH2 0xD2F JUMP JUMPDEST SWAP3 POP PUSH1 0x40 DUP6 ADD CALLDATALOAD PUSH2 0xDAC DUP2 PUSH2 0xD2F JUMP JUMPDEST SWAP2 POP PUSH1 0x60 DUP6 ADD CALLDATALOAD PUSH3 0xFFFFFF DUP2 AND DUP2 EQ PUSH2 0xDC4 JUMPI PUSH1 0x0 DUP1 REVERT JUMPDEST SWAP4 SWAP7 SWAP3 SWAP6 POP SWAP1 SWAP4 POP POP JUMP JUMPDEST DUP1 MLOAD PUSH10 0xFFFFFFFFFFFFFFFFFFFF DUP2 AND DUP2 EQ PUSH2 0xDE9 JUMPI PUSH1 0x0 DUP1 REVERT JUMPDEST SWAP2 SWAP1 POP JUMP JUMPDEST PUSH1 0x0 DUP1 PUSH1 0x0 DUP1 PUSH1 0x0 PUSH1 0xA0 DUP7 DUP9 SUB SLT ISZERO PUSH2 0xE06 JUMPI PUSH1 0x0 DUP1 REVERT JUMPDEST PUSH2 0xE0F DUP7 PUSH2 0xDCF JUMP JUMPDEST SWAP5 POP PUSH1 0x20 DUP7 ADD MLOAD SWAP4 POP PUSH1 0x40 DUP7 ADD MLOAD SWAP3 POP PUSH1 0x60 DUP7 ADD MLOAD SWAP2 POP PUSH2 0xE32 PUSH1 0x80 DUP8 ADD PUSH2 0xDCF JUMP JUMPDEST SWAP1 POP SWAP3 SWAP6 POP SWAP3 SWAP6 SWAP1 SWAP4 POP JUMP JUMPDEST PUSH1 0x0 PUSH1 0x20 DUP3 DUP5 SUB SLT ISZERO PUSH2 0xE50 JUMPI PUSH1 0x0 DUP1 REVERT JUMPDEST DUP2 MLOAD PUSH2 0xD64 DUP2 PUSH2 0xD2F JUMP JUMPDEST DUP1 MLOAD PUSH2 0xFFFF DUP2 AND DUP2 EQ PUSH2 0xDE9 JUMPI PUSH1 0x0 DUP1 REVERT JUMPDEST PUSH1 0x0 DUP1 PUSH1 0x0 DUP1 PUSH1 0x0 DUP1 PUSH1 0x0 PUSH1 0xE0 DUP9 DUP11 SUB SLT ISZERO PUSH2 0xE88 JUMPI PUSH1 0x0 DUP1 REVERT JUMPDEST DUP8 MLOAD PUSH2 0xE93 DUP2 PUSH2 0xD2F JUMP JUMPDEST DUP1 SWAP8 POP POP PUSH1 0x20 DUP9 ADD MLOAD DUP1 PUSH1 0x2 SIGNEXTEND DUP2 EQ PUSH2 0xEAB JUMPI PUSH1 0x0 DUP1 REVERT JUMPDEST SWAP6 POP PUSH2 0xEB9 PUSH1 0x40 DUP10 ADD PUSH2 0xE5B JUMP JUMPDEST SWAP5 POP PUSH2 0xEC7 PUSH1 0x60 DUP10 ADD PUSH2 0xE5B JUMP JUMPDEST SWAP4 POP PUSH2 0xED5 PUSH1 0x80 DUP10 ADD PUSH2 0xE5B JUMP JUMPDEST SWAP3 POP PUSH1 0xA0 DUP9 ADD MLOAD PUSH1 0xFF DUP2 AND DUP2 EQ PUSH2 0xEEB JUMPI PUSH1 0x0 DUP1 REVERT JUMPDEST PUSH1 0xC0 DUP10 ADD MLOAD SWAP1 SWAP3 POP DUP1 ISZERO ISZERO DUP2 EQ PUSH2 0xF01 JUMPI PUSH1 0x0 DUP1 REVERT JUMPDEST DUP1 SWAP2 POP POP SWAP3 SWAP6 SWAP9 SWAP2 SWAP5 SWAP8 POP SWAP3 SWAP6 POP JUMP JUMPDEST PUSH4 0x4E487B71 PUSH1 0xE0 SHL PUSH1 0x0 MSTORE PUSH1 0x41 PUSH1 0x4 MSTORE PUSH1 0x24 PUSH1 0x0 REVERT JUMPDEST PUSH1 0x40 MLOAD PUSH1 0x1F DUP3 ADD PUSH1 0x1F NOT AND DUP2 ADD PUSH8 0xFFFFFFFFFFFFFFFF DUP2 GT DUP3 DUP3 LT OR ISZERO PUSH2 0xF50 JUMPI PUSH2 0xF50 PUSH2 0xF11 JUMP JUMPDEST PUSH1 0x40 MSTORE SWAP2 SWAP1 POP JUMP JUMPDEST PUSH1 0x0 PUSH8 0xFFFFFFFFFFFFFFFF DUP3 GT ISZERO PUSH2 0xF72 JUMPI PUSH2 0xF72 PUSH2 0xF11 JUMP JUMPDEST POP PUSH1 0x5 SHL PUSH1 0x20 ADD SWAP1 JUMP JUMPDEST PUSH1 0x0 PUSH1 0x20 DUP1 DUP4 DUP6 SUB SLT ISZERO PUSH2 0xF8F JUMPI PUSH1 0x0 DUP1 REVERT JUMPDEST DUP3 MLOAD PUSH8 0xFFFFFFFFFFFFFFFF DUP2 GT ISZERO PUSH2 0xFA6 JUMPI PUSH1 0x0 DUP1 REVERT JUMPDEST DUP4 ADD PUSH1 0x1F DUP2 ADD DUP6 SGT PUSH2 0xFB7 JUMPI PUSH1 0x0 DUP1 REVERT JUMPDEST DUP1 MLOAD PUSH2 0xFCA PUSH2 0xFC5 DUP3 PUSH2 0xF58 JUMP JUMPDEST PUSH2 0xF27 JUMP JUMPDEST DUP2 DUP2 MSTORE PUSH1 0x5 SWAP2 SWAP1 SWAP2 SHL DUP3 ADD DUP4 ADD SWAP1 DUP4 DUP2 ADD SWAP1 DUP8 DUP4 GT ISZERO PUSH2 0xFE9 JUMPI PUSH1 0x0 DUP1 REVERT JUMPDEST SWAP3 DUP5 ADD SWAP3 JUMPDEST DUP3 DUP5 LT ISZERO PUSH2 0x101A JUMPI DUP4 MLOAD PUSH4 0xFFFFFFFF DUP2 AND DUP2 EQ PUSH2 0x100B JUMPI PUSH1 0x0 DUP1 DUP2 REVERT JUMPDEST DUP3 MSTORE SWAP3 DUP5 ADD SWAP3 SWAP1 DUP5 ADD SWAP1 PUSH2 0xFEE JUMP JUMPDEST SWAP8 SWAP7 POP POP POP POP POP POP POP JUMP JUMPDEST PUSH1 0x20 DUP1 DUP3 MSTORE DUP3 MLOAD DUP3 DUP3 ADD DUP2 SWAP1 MSTORE PUSH1 0x0 SWAP2 SWAP1 DUP5 DUP3 ADD SWAP1 PUSH1 0x40 DUP6 ADD SWAP1 DUP5 JUMPDEST DUP2 DUP2 LT ISZERO PUSH2 0x1063 JUMPI DUP4 MLOAD PUSH4 0xFFFFFFFF AND DUP4 MSTORE SWAP3 DUP5 ADD SWAP3 SWAP2 DUP5 ADD SWAP2 PUSH1 0x1 ADD PUSH2 0x1041 JUMP JUMPDEST POP SWAP1 SWAP7 SWAP6 POP POP POP POP POP POP JUMP JUMPDEST PUSH1 0x0 DUP3 PUSH1 0x1F DUP4 ADD SLT PUSH2 0x1080 JUMPI PUSH1 0x0 DUP1 REVERT JUMPDEST DUP2 MLOAD PUSH1 0x20 PUSH2 0x1090 PUSH2 0xFC5 DUP4 PUSH2 0xF58 JUMP JUMPDEST DUP3 DUP2 MSTORE PUSH1 0x5 SWAP3 SWAP1 SWAP3 SHL DUP5 ADD DUP2 ADD SWAP2 DUP2 DUP2 ADD SWAP1 DUP7 DUP5 GT ISZERO PUSH2 0x10AF JUMPI PUSH1 0x0 DUP1 REVERT JUMPDEST DUP3 DUP7 ADD JUMPDEST DUP5 DUP2 LT ISZERO PUSH2 0x10D3 JUMPI DUP1 MLOAD PUSH2 0x10C6 DUP2 PUSH2 0xD2F JUMP JUMPDEST DUP4 MSTORE SWAP2 DUP4 ADD SWAP2 DUP4 ADD PUSH2 0x10B3 JUMP JUMPDEST POP SWAP7 SWAP6 POP POP POP POP POP POP JUMP JUMPDEST PUSH1 0x0 DUP1 PUSH1 0x40 DUP4 DUP6 SUB SLT ISZERO PUSH2 0x10F1 JUMPI PUSH1 0x0 DUP1 REVERT JUMPDEST DUP3 MLOAD PUSH8 0xFFFFFFFFFFFFFFFF DUP1 DUP3 GT ISZERO PUSH2 0x1109 JUMPI PUSH1 0x0 DUP1 REVERT JUMPDEST DUP2 DUP6 ADD SWAP2 POP DUP6 PUSH1 0x1F DUP4 ADD SLT PUSH2 0x111D JUMPI PUSH1 0x0 DUP1 REVERT JUMPDEST DUP2 MLOAD PUSH1 0x20 PUSH2 0x112D PUSH2 0xFC5 DUP4 PUSH2 0xF58 JUMP JUMPDEST DUP3 DUP2 MSTORE PUSH1 0x5 SWAP3 SWAP1 SWAP3 SHL DUP5 ADD DUP2 ADD SWAP2 DUP2 DUP2 ADD SWAP1 DUP10 DUP5 GT ISZERO PUSH2 0x114C JUMPI PUSH1 0x0 DUP1 REVERT JUMPDEST SWAP5 DUP3 ADD SWAP5 JUMPDEST DUP4 DUP7 LT ISZERO PUSH2 0x117A JUMPI DUP6 MLOAD DUP1 PUSH1 0x6 SIGNEXTEND DUP2 EQ PUSH2 0x116B JUMPI PUSH1 0x0 DUP1 DUP2 REVERT JUMPDEST DUP3 MSTORE SWAP5 DUP3 ADD SWAP5 SWAP1 DUP3 ADD SWAP1 PUSH2 0x1151 JUMP JUMPDEST SWAP2 DUP9 ADD MLOAD SWAP2 SWAP7 POP SWAP1 SWAP4 POP POP POP DUP1 DUP3 GT ISZERO PUSH2 0x1193 JUMPI PUSH1 0x0 DUP1 REVERT JUMPDEST POP PUSH2 0x11A0 DUP6 DUP3 DUP7 ADD PUSH2 0x106F JUMP JUMPDEST SWAP2 POP POP SWAP3 POP SWAP3 SWAP1 POP JUMP JUMPDEST PUSH1 0x20 DUP1 DUP3 MSTORE DUP3 MLOAD DUP3 DUP3 ADD DUP2 SWAP1 MSTORE PUSH1 0x0 SWAP2 SWAP1 DUP5 DUP3 ADD SWAP1 PUSH1 0x40 DUP6 ADD SWAP1 DUP5 JUMPDEST DUP2 DUP2 LT ISZERO PUSH2 0x1063 JUMPI DUP4 MLOAD PUSH1 0x6 SIGNEXTEND DUP4 MSTORE SWAP3 DUP5 ADD SWAP3 SWAP2 DUP5 ADD SWAP2 PUSH1 0x1 ADD PUSH2 0x11C6 JUMP JUMPDEST PUSH1 0x0 PUSH1 0x20 DUP3 DUP5 SUB SLT ISZERO PUSH2 0x11F7 JUMPI PUSH1 0x0 DUP1 REVERT JUMPDEST POP MLOAD SWAP2 SWAP1 POP JUMP JUMPDEST PUSH1 0x20 DUP1 DUP3 MSTORE PUSH1 0x18 SWAP1 DUP3 ADD MSTORE PUSH32 0x4F776E61626C652F63616C6C65722D6E6F742D6F776E65720000000000000000 PUSH1 0x40 DUP3 ADD MSTORE PUSH1 0x60 ADD SWAP1 JUMP INVALID LOG2 PUSH5 0x6970667358 0x22 SLT KECCAK256 DUP8 CALLDATACOPY STOP 0x2A 0xF PUSH24 0xBF9CDFB49F02A1881B291F600B5C93FDABC39531ACE3B3C6 DUP6 0xC1 PUSH5 0x736F6C6343 STOP ADDMOD 0xF STOP CALLER ",
  "sha1": "d435dc5c7e267c37d0ca1372ab2fbb3853c09fb9",
  "source": "pragma solidity ^0.8.0;\nimport \"@chainlink/contracts/src/v0.8/interfaces/AggregatorV3Interface.sol\";\nimport \"@uniswap/v3-periphery/contracts/interfaces/ISwapRouter.sol\";\nimport \"@uniswap/v3-core/contracts/interfaces/IUniswapV3Pool.sol\";\nimport \"@uniswap/v3-core/contracts/interfaces/IUniswapV3Factory.sol\";\nimport \"./extern/UintConverter.sol\";\nimport './interface/IArbitrageOracle.sol';\nimport './extern/Manageable.sol';\n\ncontract ArbitragePrice is IArbitrageOracle, Ownable {\n    struct Pool {\n        address tokenA;\n        address tokenB;\n        address aggregator;\n        uint24 fee;\n    }\n    address public constant uniswapV3SwapRouter = 0xE592427A0AEce92De3Edee1F18E0157C05861564;\n    address public constant pancakeswapV3SwapRouter = 0x1C232F01118CB8B424793ae03F870aa7D0ac7f77;\n    mapping(address => Pool) public prices;\n    address public univ3_router; \n    address public aggregator;\n    constructor(address _univ3_router, address _aggregator)Ownable(msg.sender)\n    {\n        univ3_router = _univ3_router;\n        aggregator = _aggregator;\n    }\n\n    function setPool(address strategy, address tokenA, address tokenB, uint24 fee) external onlyOwner {\n        require(strategy != address(0), \"ArbitragePrice: strategy cann't be zero address\");\n        require(tokenA != address(0), \"ArbitragePrice: tokenA cann't be zero address\");\n        require(tokenB != address(0), \"ArbitragePrice: tokenB cann't be zero address\");\n        Pool memory new_pool;\n        new_pool.tokenA = tokenA;\n        new_pool.tokenB = tokenB;\n        new_pool.fee = fee;\n        prices[strategy] = new_pool;\n    }\n\n    function getLinkPrice(address strategy) external override returns(uint256) {\n        Pool memory pool = prices[strategy];\n        AggregatorV3Interface priceFeed = AggregatorV3Interface(pool.aggregator);\n        (uint80 price, int256 timestamp, , , ) = priceFeed.latestRoundData();\n        return uint256(price);\n    }\n\n    function getUniV3Price(address strategy) external override returns(uint256) {\n        Pool memory pool = prices[strategy];\n        address tokenA = pool.tokenA;\n        address tokenB = pool.tokenB;\n        uint24 fee = pool.fee;\n\n        IUniswapV3Pool v3Pool = IUniswapV3Pool(IUniswapV3Factory(uniswapV3SwapRouter).getPool(tokenA, tokenB, fee));\n        (uint160 sqrtRatioX96, , , , , , ) = v3Pool.slot0();\n        uint32[] memory convertedSqrtRatioX96 = UintConverter.toUint32Array(sqrtRatioX96);\n        (int56[] memory originprice, ) = v3Pool.observe(convertedSqrtRatioX96);\n        uint256 price = UintConverter.convertToInt(originprice);\n\n        return price;\n    }\n\n    function getPancakeV3Price(address strategy) external override returns(uint256) {\n        Pool memory pool = prices[strategy];\n        address tokenA = pool.tokenA;\n        address tokenB = pool.tokenB;\n\n        IUniswapV3Pool v3Pool = IUniswapV3Pool(IUniswapV3Factory(pancakeswapV3SwapRouter).getPool(tokenA, tokenB, 3000));\n        (uint160 sqrtRatioX96, , , , , , ) = v3Pool.slot0();\n        uint32[] memory convertedSqrtRatioX96 = UintConverter.toUint32Array(sqrtRatioX96);\n        (int56[] memory originprice, ) = v3Pool.observe(convertedSqrtRatioX96);\n        uint256 price = UintConverter.convertToInt(originprice);\n\n        return price;\n    }\n\n}",
  "sourcePath": "contracts/ArbitragePrice.sol",
  "type": "contract"
}